:100000000C942A000C943C000C943C000C943C0092
:100010000C943C000C943C000C943C000C943C0070
:100020000C943C000C943C000C943C000C94450057
:100030000C943C000C943C000C943C000C943C0050
:100040000C943C000C943C000C943C000C943C0040
:100050000C943C0011241FBECFE5D8E0DEBFCDBF1D
:1000600010E0A0E6B0E001C01D92A136B107E1F7B3
:100070000E9463000C946A000C94000085E883BF22
:1000800085E082BF81E089BF08951F920F920FB66D
:100090000F9211248F93809160008F5F843019F04C
:1000A000809360000AC01092600085B3893011F41B
:1000B00015BA03C085B38F5F85BB8F910F900FBEBC
:1000C0000F901F9018958FEF84BB15BA0E943E00C9
:0800D0007894FFCFF894FFCFF4
:00000001FF
