:100000000C942A000C943C000C943C000C943C0092
:100010000C943C000C943C000C943C000C943C0070
:100020000C943C000C943C000C943C000C94480054
:100030000C943C000C943C000C943C000C943C0050
:100040000C943C000C943C000C943C000C943C0040
:100050000C943C0011241FBECFE5D8E0DEBFCDBF1D
:1000600010E0A0E6B0E001C01D92A136B107E1F7B3
:100070000E9459000C9468000C94000085E883BF2E
:1000800012BE89B7816089BF78941092600008958C
:100090001F920F920FB60F9211248F9380916000E0
:1000A0008F5F809360008F910F900FBE0F901F9015
:1000B0001895A09A0E943E0091E0809160008430E3
:1000C000E1F785B3892785BB12BE10926000F5CF9A
:0400D000F894FFCFD2
:00000001FF
