:100000000C942A000C9434000C9434000C943400AA
:100010000C9434000C9434000C9434000C94340090
:100020000C9434000C9434000C9434000C94340080
:100030000C9434000C9434000C9434000C94340070
:100040000C9434000C9434000C9434000C94340060
:100050000C94340011241FBECFE5D8E0DEBFCDBF25
:100060000E9436000C9450000C94000088988998E7
:100070008A988C9A8D9A8E9A8F9A809B02C0959AB4
:10008000949A819B03C0969A949A02C096989498E9
:10009000829B03C0979A949AF0CF97989498EDCF4B
:0400A000F894FFCF02
:00000001FF
