:100000000C942A000C9434000C9434000C943400AA
:100010000C9434000C9434000C9434000C94340090
:100020000C9434000C9434000C9434000C94340080
:100030000C9434000C9434000C9434000C94340070
:100040000C9434000C9434000C9434000C94340060
:100050000C94340011241FBECFE5D8E0DEBFCDBF25
:100060000E9436000C9464000C940000889A899ACF
:100070008A9A959A2FEF84E39CE02150804090402B
:10008000E1F700C000009598969A2FEF84E39CE07A
:10009000215080409040E1F700C000009698979A68
:1000A0002FEF84E39CE0215080409040E1F700C0B6
:1000B000000097982FEF84E39CE02150804090400F
:0C00C000E1F700C00000D5CFF894FFCF9E
:00000001FF
