:100000000C943C000C9446000C9446000C94460062
:100010000C9446000C9446000C9446000C94460048
:100020000C9446000C9446000C9446000C94460038
:100030000C9446000C9446000C9446000C94460028
:100040000C9446000C9446000C9446000C94460018
:100050000C9446005D0060006200660068006B0062
:100060006D007200740090009300950099009B0051
:100070009E00A000A500A70011241FBECFE5D8E078
:10008000DEBFCDBF0E9448000C94C7000C94000056
:100090008C9AA29AA39AA49AA59AA69AA79AAA9A7F
:1000A00080E090E0FC013197E930F10520F4E65D55
:1000B000FF4F0C94C100AC9801C0AC9AAD9804C03D
:1000C000AC9801C0AC9AAD9AAE980AC0AC9801C089
:1000D000AC9AAD9804C0AC9801C0AC9AAD9AAE9AF7
:1000E000AF9806C0AC9801C0AC9AAD98AE98AF9AE4
:1000F0002FEF39E648E1215030404040E1F700C0A1
:10010000000020E030E0AB98AA9AF9013197E9307D
:10011000F10520F4ED5CFF4F0C94C100AC9801C0D8
:10012000AC9AAD9804C0AC9801C0AC9AAD9AAE98A8
:100130000AC0AC9801C0AC9AAD9804C0AC9801C09C
:10014000AC9AAD9AAE9AAF9806C0AC9801C0AC9A82
:10015000AD98AE98AF9A5FEF69E648E151506040C4
:100160004040E1F700C000002F5F3F4F2A303105CB
:1001700051F6AB9A01968A30910509F093CFAA986F
:100180008ECFEE0FFF1F0590F491E02D0994F894A7
:02019000FFCF9F
:00000001FF
