:100000000C942A000C943C000C943C000C943C0092
:100010000C943C000C943C000C943C000C943C0070
:100020000C943C000C943C000C943C000C944D004F
:100030000C943C000C943C000C943C000C943C0050
:100040000C943C000C943C000C943C000C943C0040
:100050000C943C0011241FBECFE5D8E0DEBFCDBF1D
:1000600010E0A0E6B0E001C01D92A236B107E1F7B2
:100070000E9446000C9472000C94000013BE81E0B4
:1000800089BF1CBE089585E083BF08958D9A0E94A4
:100090003E00789485E083BFFFCF1F920F920FB68A
:1000A0000F9211248F939F93809160009091610033
:1000B0008436910531F49598109261001092600099
:1000C0000AC0959A8091600090916100019690938A
:1000D0006100809360009F918F910F900FBE0F90F1
:0800E0001F901895F894FFCF62
:00000001FF
