:100000000C942A000C9450000C9470000C94340052
:100010000C9434000C9434000C9434000C94340090
:100020000C9434000C9434000C9434000C94340080
:100030000C9434000C9434000C9434000C94340070
:100040000C9434000C9434000C9434000C94340060
:100050000C94340011241FBECFE5D8E0DEBFCDBF25
:100060000E9436000C9490000C94000085B78160CB
:1000700085BF85B7826085BF8BB780648BBF85B72E
:10008000886085BF85B7846085BF8BB780688BBF6C
:100090007894A59AA69AA79A8D9A8E9A8F9AFFCF4E
:1000A00078941F920F920FB60F9211242F938F9373
:1000B0009F93AD98AE98AF98959A969A979A2FEF8E
:1000C00089E698E1215080409040E1F700C00000AF
:1000D0009F918F912F910F900FBE0F901F901895A9
:1000E00078941F920F920FB60F9211242F938F9333
:1000F0009F93AD9AAE9AAF9A9598969897982FEF4E
:1001000083ED90E3215080409040E1F700C0000073
:100110009F918F912F910F900FBE0F901F90189568
:04012000F894FFCF81
:00000001FF
