:100000000C9434000C9446000C9446000C9446006A
:100010000C9446000C9446000C9446000C94460048
:100020000C9446000C9446000C9446000C94460038
:100030000C9446000C9446000C9446000C94460028
:100040000C9446000C9446000C9446000C94460018
:100050000C94460095019801A201A601AC01B201E1
:10006000BA01BE01C401CC0111241FBECFE5D8E006
:10007000DEBFCDBF10E0A0E6B0E001C01D92AC37FE
:10008000B107E1F70E942B010C94EC010C940000E5
:100090000C943001CF93C0E08C2F0E948B012FEF86
:1000A00089E698E1215080409040E1F700C00000CF
:1000B000CF5FCA3089F7CF910895DC019C919234CB
:1000C00069F028F4913479F4EAE3F0E00CC0933459
:1000D00041F0943441F4E1E3F0E005C0E7E3F0E0FF
:1000E00002C0E4E3F0E012968C91129721E030E038
:1000F000813059F4C90111960C9002C0880F991FE4
:100100000A94E2F79081892B0BC0C90111960C90DB
:1001100002C0880F991F0A94E2F780959081892385
:1001200080830895DC019C91923469F028F4913425
:1001300079F4EBE3F0E00CC0933441F0943441F4F3
:10014000E2E3F0E005C0E8E3F0E002C0E5E3F0E060
:1001500013968C91139721E030E0813059F4C90156
:1001600011960C9002C0880F991F0A94E2F79081B3
:10017000892B0BC0C90111960C9002C0880F991FE2
:100180000A94E2F780959081892380830895DC01A9
:100190009C91923469F028F4913479F4E9E3F0E029
:1001A0000CC0933441F0943441F4E0E3F0E005C036
:1001B000E6E3F0E002C0E3E3F0E0208130E0C901D3
:1001C00011960C9002C0959587950A94E2F781707C
:1001D00008950E9406010C94F5000E94FF00892BEF
:1001E00011F00C9416010C941D01E0E6F0E084E49B
:1001F0008083118212821382CF010C945D0080E60D
:1002000090E00E94C700809363000895E4E6F0E068
:1002100084E4808385E0818381E082831382CF013F
:100220000E945D0084E690E00C94920081E080934F
:10023000670084E690E00C9492001092670084E6D8
:1002400090E00C94920080916700811102C00C94A0
:1002500016010C941D010E9448000E944A00FDCF27
:10026000CF93DF9348E750E083E4FA01808324E7EB
:1002700030E0F9018083C0E7D0E08883ACE6B0E0ED
:100280008C9368E670E0FB01808384E0FA0181834F
:1002900085E0F901818386E0898387E011968C935C
:1002A000119782E0FB01818381E0FA018283F901E9
:1002B00082838A8312968C931297FB018283FA01C0
:1002C0001382F90113821B8213961C92FB01838314
:1002D000CB010E94920088E790E00E945D0084E7D5
:1002E00090E00E945D00CE010E945D008CE690E0EF
:1002F0000E945D0088E790E00E94920084E790E011
:100300000E949200CE010E9492008CE690E0DF9164
:10031000CF910C94920090E08A30910508F055C07E
:10032000FC01E65DFF4F0C94E60110927B0003C0D8
:1003300081E080937B0010927700109273001092FE
:100340006F0033C010927B0081E003C081E0809396
:100350007B0080937700F1CF10927B0010927700A2
:1003600081E005C081E080937B001092770080934C
:100370007300E5CF10927B0081E003C081E08093A1
:100380007B0080937700F3CF10927B001092770070
:100390001092730081E007C081E080937B0010928F
:1003A00077001092730080936F0088E790E00E94BE
:1003B000920084E790E00E94920080E790E00E9423
:1003C00092008CE690E00C9492000895EE0FFF1FCF
:0C03D0000590F491E02D0994F894FFCF03
:00000001FF
