:100000000C942A000C9447000C9434000C94340097
:100010000C9434000C9434000C9434000C94340090
:100020000C9434000C9434000C9434000C94340080
:100030000C9434000C9434000C9434000C94340070
:100040000C9434000C9434000C9434000C94340060
:100050000C94340011241FBECFE5D8E0DEBFCDBF25
:100060000E9436000C9463000C94000085B78160F8
:1000700085BF85B7826085BF8BB780648BBF78945E
:100080008D9A8E9A8F9A959A969A979AFCCF1F92EC
:100090000F920FB60F9211242F938F939F939598E1
:1000A0009698979A2FEF89E698E1215080409040EA
:1000B000E1F700C000009F918F912F910F900FBE2C
:0A00C0000F901F901895F894FFCFE1
:00000001FF
