:100000000C942A000C943F000C943F000C943F0089
:100010000C943F000C943F000C943F000C943F0064
:100020000C943F000C943F000C943F000C943F0054
:100030000C943F000C943F000C943F000C943F0044
:100040000C943F000C943F000C943F000C943F0034
:100050000C943F0011241FBECFE5D8E0DEBFCDBF1A
:1000600010E0A0E6B0E0E2E0F5E002C005900D92FD
:10007000A636B107D9F70E94ED000C947F020C94CC
:10008000000017B83298319A309A379A089597B18C
:10009000907E97B997B1892B87B9369A349BFECF5A
:1000A000349A84B195B1089594989598E9EFF0E069
:1000B0003197F1F700C00000969AE9EFF0E0319730
:1000C000F1F700C0000085BB89EF90E00197F1F7E0
:1000D00000C000009698E9EFF0E03197F1F700C01A
:1000E00000000895949A9598E9EFF0E03197F1F7C0
:1000F00000C00000969AE9EFF0E03197F1F700C0F8
:10010000000085BB89EF90E00197F1F700C0000087
:100110009698E9EFF0E03197F1F700C000000895FC
:100120008C9A8D9A8E9A8FEF84BB88E30E9454003C
:100130008CE00E94540081E00C9454000F931F93B4
:10014000CF938C01C0E0F801EC0FF11D8081882372
:1001500021F00E947200CF5FF6CFCF911F910F91D7
:100160000895813049F030F0823041F0833041F41D
:1001700090E505C0962F04C090E401C090E1960F71
:10018000892F80680C945400CF93DF93EA010E947A
:10019000B100CE01DF91CF910C949E00CF93DF93FD
:1001A000CDB7DEB760970FB6F894DEBF0FBECDBFF8
:1001B0004AE050E0BE016F5F7F4F90E00E943A023C
:1001C000CE0101960E949E0060960FB6F894DEBFA5
:1001D0000FBECDBFDF91CF9108950E9490000E9485
:1001E000410040E650E063E080E00E94C400CEEEB3
:1001F000D2E083E00E9447008C0168E080E00E942A
:10020000B1000C9FB0010D9F700D1C9F700D11244B
:1002100080E090E00E94AC0120E030ED4FEB54E430
:100220000E9418010E948001862F0E94CE00E1CF1B
:100230000CD0E6C0DED040F0D5D030F021F45F3FE6
:1002400019F0C7C0511110C1CAC0EBD098F399235F
:10025000C9F35523B1F3951B550BBB27AA2762178A
:100260007307840738F09F5F5F4F220F331F441FCF
:10027000AA1FA9F333D00E2E3AF0E0E830D0915007
:100280005040E695001CCAF729D0FE2F27D0660FF4
:10029000771F881FBB1F261737074807AB07B0E833
:1002A00009F0BB0B802DBF01FF2793585F4F2AF049
:1002B0009E3F510568F08DC0D7C05F3FECF3983E7C
:1002C000DCF3869577956795B795F7959F5FC9F7A6
:1002D000880F911D9695879597F90895E1E0660F2F
:1002E000771F881FBB1F621773078407BA0720F0A8
:1002F000621B730B840BBA0BEE1F88F7E095089511
:1003000098D088F09F5790F0B92F9927B751A0F057
:10031000D1F0660F771F881F991F1AF0BA95C9F799
:1003200012C0B13081F09FD0B1E008959CC0672F1A
:10033000782F8827B85F39F0B93FCCF38695779549
:100340006795B395D9F73EF4909580957095619532
:100350007F4F8F4F9F4F0895E89409C097FB3EF45D
:1003600090958095709561957F4F8F4F9F4F992302
:10037000A9F0F92F96E9BB279395F6958795779580
:100380006795B795F111F8CFFAF4BB0F11F460FF40
:100390001BC06F5F7F4F8F4F9F4F16C0882311F098
:1003A00096E911C0772321F09EE8872F762F05C0AC
:1003B000662371F096E8862F70E060E02AF09A9547
:1003C000660F771F881FDAF7880F9695879597F93C
:1003D000089597F99F6780E870E060E008959FEFC7
:1003E00080EC089500240A941616170618060906CC
:1003F000089500240A94121613061406050608959B
:10040000092E0394000C11F4882352F0BB0F40F422
:10041000BF2B11F460FF04C06F5F7F4F8F4F9F4F62
:10042000089557FD9058440F551F59F05F3F71F0E4
:100430004795880F97FB991F61F09F3F79F087954B
:100440000895121613061406551FF2CF4695F1DFD4
:1004500008C0161617061806991FF1CF8695710564
:10046000610508940895E894BB2766277727CB0198
:1004700097F90895FB019F01E8944230C4F045329A
:10048000B4F44A3029F497FB1EF4909581959F4F60
:10049000642F77270E946B02805D8A330CF0895DA0
:1004A0008193CB010097A1F716F45DE2519310827E
:1004B000C9010C945B02DC01FC01672F7191772369
:1004C000E1F7329704C07C916D9370836291AE170F
:1004D000BF07C8F30895AA1BBB1B51E107C0AA1FA1
:1004E000BB1FA617B70710F0A61BB70B881F991FD5
:1004F0005A95A9F780959095BC01CD010895F8947F
:02050000FFCF2B
:0605020054656D703D0020
:00000001FF
