:100000000C943E000C9448000C9448000C9448005A
:100010000C9448000C9448000C9448000C94480040
:100020000C9448000C9448000C9448000C94480030
:100030000C9448000C9448000C9448000C94480020
:100040000C9448000C9448000C9448000C94480010
:100050000C944800670069006E0070007300750022
:1000600078007A007E008000A300A500AA00AC0002
:10007000AF00B100B400B600BA00BC0011241FBE2E
:10008000CFE5D8E0DEBFCDBF0E944A000C94D70078
:100090000C940000889889988C9A8D9AA29AA39AB9
:1000A000A49AA59AA69AA79A89E090E060E070E0E9
:1000B000809B3AC0AB98AA9A9B012F5F3F4F6A3052
:1000C000710510F5FB01E65DFF4F0C94D100AC9873
:1000D00001C0AC9AAD98AE98AF9816C0AC9801C06C
:1000E000AC9AAD9AF8CFAC9801C0AC9AAD9804C068
:1000F000AC9801C0AC9AAD9AAE9AEECFAC9801C064
:10010000AC9AAD98AE98AF9A4FEF54E36CE0415083
:1001100050406040E1F700C000002A30310519F47A
:1001200060E070E001C0B901819BC2CFAA98AB9A90
:100130009C01215031098A30910510F58C5C9F4F4C
:10014000FC010C94D100AC9801C0AC9AAD98AE986B
:10015000AF9816C0AC9801C0AC9AAD9AF8CFAC98E5
:1001600001C0AC9AAD9804C0AC9801C0AC9AAD9AED
:10017000AE9AEECFAC9801C0AC9AAD98AE98AF9A5B
:10018000FFEF44E35CE0F15040405040E1F700C035
:1001900000002115310511F0C9018ACF89E090E0F6
:1001A00087CFEE0FFF1F0590F491E02D0994F8948E
:0201B000FFCF7F
:00000001FF
