:100000000C942A000C943C000C943C000C943C0092
:100010000C943C000C943C000C943C000C943C0070
:100020000C943C000C943C000C943C000C943C0060
:100030000C943C000C943C000C943C000C943C0050
:100040000C943C000C943C000C943C000C943C0040
:100050000C943C0011241FBECFE5D8E0DEBFCDBF1D
:1000600010E0A0E6B0E001C01D92A436B107E1F7B0
:100070000E94D7000C94EA000C940000DC019C91D3
:10008000923469F028F4913479F4EAE3F0E00CC09A
:10009000933441F0943441F4E1E3F0E005C0E7E348
:1000A000F0E002C0E4E3F0E012968C911297119612
:1000B0005C914081813051F421E030E0052E01C097
:1000C000220F0A94EAF7242B2083089581E090E020
:1000D000052E01C0880F0A94EAF780958423808357
:1000E0000895DC019C91923469F028F4913479F4FC
:1000F000EBE3F0E00CC0933441F0943441F4E2E3DC
:10010000F0E005C0E8E3F0E002C0E5E3F0E01396BC
:100110008C91139711965C914081813051F421E0CC
:1001200030E0052E01C0220F0A94EAF7242B208329
:10013000089581E090E0052E01C0880F0A94EAF747
:100140008095842380830895DC019C91923469F02A
:1001500028F4913479F4E9E3F0E00CC0933441F0F1
:10016000943441F4E0E3F0E005C0E6E3F0E002C0DF
:10017000E3E3F0E0208130E0C90111960C9002C069
:10018000959587950A94E2F781700895E0E6F0E08E
:1001900084E48083118212821382CF010C943E008A
:1001A00080E690E00E94A400809363000895A09AE6
:1001B000A19AD098D198D298C89B02C0A89A08C09A
:1001C000C99B03C0A99AA898F7CFCA9BF5CFA89856
:0801D000A998F2CFF894FFCFCB
:00000001FF
