:100000000C942A000C943F000C943F000C943F0089
:100010000C943F000C943F000C943F000C943F0064
:100020000C943F000C943F000C943F000C943F0054
:100030000C943F000C943F000C943F000C943F0044
:100040000C943F000C943F000C943F000C943F0034
:100050000C943F0011241FBECFE5D8E0DEBFCDBF1A
:1000600010E0A0E6B0E0E6E9F2E002C005900D92F3
:10007000AE37B107D9F70E94DA000C9449010C940D
:10008000000094989598EFECF7E03197F1F700C0F5
:100090000000969AEFECF7E03197F1F700C000000E
:1000A00085BB8FEC97E00197F1F700C000009698B0
:1000B000EFECF7E03197F1F700C000000895949A53
:1000C0009598EFECF7E03197F1F700C00000969AB1
:1000D000EFECF7E03197F1F700C0000085BB8FEC43
:1000E00097E00197F1F700C000009698EFECF7E079
:1000F0003197F1F700C0000008958C9A8D9A8E9A7E
:100100008FEF84BB88E30E9441008CE00E94410095
:1001100081E00C9441000F931F93CF938C01C0E0BA
:10012000F801EC0FF11D8081882321F00E945F000F
:10013000CF5FF6CFCF911F910F910895813049F095
:1001400030F0823041F0833041F490E505C0962FC5
:1001500004C090E401C090E1960F892F80680C9450
:100160004100CF93DF93EA010E949E00CE01DF9110
:10017000CF910C948B00CF93DF93CDB7DEB7609710
:100180000FB6F894DEBF0FBECDBF4AE050E0BE010F
:100190006F5F7F4F90E00E940401CE0101960E94A4
:1001A0008B0060960FB6F894DEBF0FBECDBFDF9117
:1001B000CF910895CF93DF93CDB7DEB764970FB695
:1001C000F894DEBF0FBECDBF0E947D0081E60E9485
:1001D0005F008AE0E0E6F0E0DE01119601900D920A
:1001E0008A95E1F7FE013B968AE0DF011D928A9530
:1001F000E9F7CE0101960E948B0044E750E065E0EC
:1002000081E00E94B100FFCFFB019F01E8944230E2
:10021000C4F04532B4F44A3029F497FB1EF49095AB
:1002200081959F4F642F77270E943501805D8A3327
:100230000CF0895D8193CB010097A1F716F45DE284
:1002400051931082C9010C942501DC01FC01672F38
:1002500071917723E1F7329704C07C916D9370839D
:100260006291AE17BF07C8F30895AA1BBB1B51E1EB
:1002700007C0AA1FBB1FA617B70710F0A61BB70B16
:10028000881F991F5A95A9F780959095BC01CD01BB
:060290000895F894FFCF71
:100296004131332047726F75700000000000000086
:0E02A60000000000456D626564646564000040
:00000001FF
