:100000000C9434000C945E000C9446000C94460052
:100010000C9446000C9446000C9446000C94460048
:100020000C9446000C9446000C9446000C94460038
:100030000C9446000C9446000C9446000C94460028
:100040000C9446000C9446000C9446000C94460018
:100050000C94460079007B008000820085008700B8
:100060008A008C009000920011241FBECFE5D8E0DA
:10007000DEBFCDBF10E0A0E6B0E001C01D92A23609
:10008000B107E1F70E9448000C94B9000C940000FD
:1000900085B78E7F85BF85B7826085BF8BB780644B
:1000A0008BBF7894889889988C9A8D9AA29AA39AF3
:1000B000A49AA59AA69AA79AAA9AFFCF1F920F92DE
:1000C0000FB60F9211242F938F939F93EF93FF936B
:1000D000E0916000F0916100CF0101969093610082
:1000E00080936000EA30F10508F5E65DFF4F0C945F
:1000F000B300AC9801C0AC9AAD98AE98AF9816C05A
:10010000AC9801C0AC9AAD9AF8CFAC9801C0AC9A4B
:10011000AD9804C0AC9801C0AC9AAD9AAE9AEECF3F
:10012000AC9801C0AC9AAD98AE98AF9A2FEF84E32B
:100130009CE0215080409040E1F700C00000809199
:100140006000909161000A9721F410926100109272
:100150006000FF91EF919F918F912F910F900FBEB3
:100160000F901F901895EE0FFF1F0590F491E02D52
:060170000994F894FFCF92
:00000001FF
