:100000000C942A000C9434000C9434000C943400AA
:100010000C9434000C9434000C9434000C94340090
:100020000C9434000C9434000C9434000C94340080
:100030000C9434000C9434000C9434000C94340070
:100040000C9434000C9434000C9434000C94340060
:100050000C94340011241FBECFE5D8E0DEBFCDBF25
:100060000E9436000C944E000C9400008A988998E7
:1000700088988F9A8E9A8D9A809B02C0959A01C01B
:100080009598819B02C0969A01C09698829B02C067
:10009000979A01C0979880E090E00895F894FFCF78
:00000001FF
